:100000000C9462000C948A000C948A000C948A0070
:100010000C948A000C948A000C948A000C948A0038
:100020000C948A000C948A000C948A000C948A0028
:100030000C948A000C948A000C948A000C948A0018
:100040000C94F4020C948A000C948A000C948A009C
:100050000C948A000C948A000C948A000C948A00F8
:100060000C948A000C948A000000000024002700F1
:100070002A0000000000250028002B0000000000DE
:1000800023002600290004040404040404040202DA
:100090000202020203030303030301020408102007
:1000A0004080010204081020010204081020000012
:1000B0000007000201000003040600000000000029
:1000C00000008C0011241FBECFEFD8E0DEBFCDBFF3
:1000D00011E0A0E0B1E0EAE9F9E002C005900D927C
:1000E000AA33B107D9F711E0AAE3B1E001C01D922C
:1000F000A835B107E1F710E0C4ECD0E004C02297C6
:10010000FE010E94C704C23CD107C9F70E946D04DA
:100110000C94CB040C940000CF92EF920F938AE3DF
:1001200091E06DE04CE027E006E055E0E52E34E09C
:10013000C32E0E94BB020F91EF90CF9008950F93B2
:100140001F938091260161E00E941904809128018B
:1001500060E00E9419040AE311E0C80161E041E097
:100160000E94CE01C80160E071E00E94C20460ED0F
:1001700077E080E090E00E943C038091260160E0FF
:100180000E9419048091280161E00E941904C801AD
:1001900061E041E00E94CE01C8016AE071E00E9486
:1001A000C20460ED77E080E090E00E943C031F9184
:1001B0000F9108950F931F930AE311E0C80160E1C6
:1001C00042E020E00E9405028091260161E00E9449
:1001D000DA038091280161E00E94DA03C80160E03F
:1001E00040E00E94CE01C80168E171E00E94C204B3
:1001F00060ED77E080E090E00E943C03C8010E943F
:10020000FD011F910F9108950F931F938C01FC0125
:10021000868160E00E94190481E090E00E949503CD
:10022000F801868161E00E94190481E090E00E945B
:100230009503F801868160E00E94190484E690E04D
:100240000E9495031F910F910895CF92DF92EF9234
:10025000FF920F931F93CF93DF93D82EC92E282F91
:10026000392FC9018C01C0E0D0E0E62EFF24F8014F
:10027000878161E00E94DA03B7010C2E02C07595F8
:1002800067950A94E2F76170F80187810E9419046A
:1002900021960F5F1F4FC830D10549F78D2D9C2D3A
:1002A0000E940401DF91CF911F910F91FF90EF9079
:1002B000DF90CF900895CF92DF92EF92FF920F934D
:1002C0001F93CF93DF93D82EC92E282F392FC90122
:1002D0008C01C0E0D0E0E62EFF24F801878161E0C8
:1002E0000E94DA03B7010C2E02C0759567950A9437
:1002F000E2F76170F80187810E94190421960F5F6F
:100300001F4FC430D10549F78D2D9C2D0E9404014B
:10031000DF91CF911F910F91FF90EF90DF90CF90E1
:1003200008951F93CF93DF93EC01162F8C81642FD8
:100330000E9419048D818F3F19F060E00E9419041A
:100340008F8584FF05C0CE01612F0E9425010EC05C
:10035000612F70E084E0759567958A95E1F7CE018D
:100360000E945B01CE01612F0E945B01DF91CF9162
:100370001F91089541E00E94910181E090E008956D
:1003800040E00E9491010895FC016089862F8460FD
:10039000808B6C60CF010E94C0010895DF93CF93E2
:1003A000CDB7DEB728970FB6F894DEBF0FBECDBF2E
:1003B0009C01FE013196A2E3B1E088E00D9001922C
:1003C0008150E1F7F9018389481710F0482F415017
:1003D000E42FF0E0EE0FFF1FEC0FFD1F8181680F8F
:1003E0006068C9010E94C00128960FB6F894DEBF6C
:1003F0000FBECDBFCF91DF91089561E00E94C00193
:1004000080ED97E00E9495030895CF93DF93EC0170
:10041000423018F08F8588608F874B8B1C8A22238F
:1004200029F0413019F48F8584608F8780E593EC43
:100430000E9495038C8160E00E9419048E8160E027
:100440000E9419048D818F3F19F060E00E94190409
:100450006F8564FD1DC0CE0163E00E945B0184E9ED
:1004600091E10E949503CE0163E00E945B0184E963
:1004700091E10E949503CE0163E00E945B0186E951
:1004800090E00E949503CE0162E00E945B0116C0DD
:100490006062CE010E94C00184E991E10E9495034F
:1004A0006F856062CE010E94C00186E990E00E94E3
:1004B00095036F856062CE010E94C0016F85606206
:1004C000CE010E94C00184E0888BCE010E94C4014D
:1004D000CE010E94FD0182E0898BCE0166E00E9480
:1004E000C001DF91CF9108956F927F928F92AF926A
:1004F000CF92EF920F931F93DF93CF93CDB7DEB7D9
:100500003C01162F842FF301448325830683E78261
:10051000C086A18682869D8593879E8594879F85C8
:1005200095879889968761E00E94DA03F3018581B7
:100530008F3F19F061E00E94DA03F301868161E0E8
:100540000E94DA03112319F0F301178603C080E13A
:10055000F3018787C30160E141E020E00E940502CA
:10056000CF91DF911F910F91EF90CF90AF908F902F
:100570007F906F9008958F92AF92CF92EF920F93EA
:100580001F93CF93DF93DC01362F542F722F102F40
:10059000AE2C8C2C13961C921E9212978EE291E038
:1005A00011969C938E9300D000D0EDB7FEB7319694
:1005B000CDB7DEB71982118212821382CD0161E0BC
:1005C000432F2FEF052FE72EC12E0E9474020F90AC
:1005D0000F900F900F90DF91CF911F910F91EF909F
:1005E000CF90AF908F9008951F920F920FB60F92F9
:1005F00011242F933F938F939F93AF93BF93809139
:10060000530190915401A0915501B0915601309140
:1006100057010196A11DB11D232F2D5F2D3720F00D
:100620002D570196A11DB11D2093570180935301B1
:1006300090935401A0935501B093560180914F01BE
:1006400090915001A0915101B09152010196A11DCC
:10065000B11D80934F0190935001A0935101B0932D
:100660005201BF91AF919F918F913F912F910F9028
:100670000FBE0F901F9018959B01AC017FB7F894A7
:1006800080914F0190915001A0915101B091520180
:1006900066B5A89B05C06F3F19F00196A11DB11D5D
:1006A0007FBFBA2FA92F982F8827860F911DA11DD4
:1006B000B11D62E0880F991FAA1FBB1F6A95D1F771
:1006C000BC012DC0FFB7F89480914F01909150016B
:1006D000A0915101B0915201E6B5A89B05C0EF3F32
:1006E00019F00196A11DB11DFFBFBA2FA92F982F98
:1006F00088278E0F911DA11DB11DE2E0880F991F63
:10070000AA1FBB1FEA95D1F7861B970B885E934003
:10071000C8F2215030404040504068517C4F211574
:1007200031054105510571F60895019739F0880F9B
:10073000991F880F991F02970197F1F708957894F0
:1007400084B5826084BD84B5816084BD85B58260D6
:1007500085BD85B5816085BDEEE6F0E08081816074
:100760008083E1E8F0E01082808182608083808174
:1007700081608083E0E8F0E0808181608083E1EB4C
:10078000F0E0808184608083E0EBF0E08081816034
:100790008083EAE7F0E080818460808380818260EA
:1007A00080838081816080838081806880831092D3
:1007B000C1000895CF93DF93482F50E0CA018656B9
:1007C0009F4FFC0134914A575F4FFA01849188236F
:1007D00069F190E0880F991FFC01E859FF4FA5913E
:1007E000B491FC01EE58FF4FC591D491662351F4AA
:1007F0002FB7F8948C91932F909589238C938881AF
:1008000089230BC0623061F42FB7F8948C91932F39
:10081000909589238C938881832B88832FBF06C072
:100820009FB7F8948C91832B8C939FBFDF91CF91CE
:100830000895482F50E0CA0182559F4FFC01249132
:10084000CA0186569F4FFC0194914A575F4FFA01A7
:100850003491332309F440C0222351F1233071F045
:10086000243028F42130A1F0223011F514C02630B4
:10087000B1F02730C1F02430D9F404C08091800059
:100880008F7703C0809180008F7D8093800010C09F
:1008900084B58F7702C084B58F7D84BD09C08091F7
:1008A000B0008F7703C08091B0008F7D8093B0003F
:1008B000E32FF0E0EE0FFF1FEE58FF4FA591B4912C
:1008C0002FB7F894662321F48C919095892302C068
:1008D0008C91892B8C932FBF0895CF93DF930E9427
:1008E0009F030E94DA00C0E0D0E00E949F002097A2
:1008F000E1F30E940000F9CFCF92DF92EF92FF92D6
:100900000F931F93CF93DF937C016B018A01C0E0AB
:10091000D0E00FC0D6016D916D01D701ED91FC9132
:100920000190F081E02DC7010995C80FD91F015032
:1009300010400115110571F7CE01DF91CF911F9184
:100940000F91FF90EF90DF90CF900895CF93DF93BA
:10095000EC016115710519F420E030E00FC0DB01F6
:100960000D900020E9F71197A61BB70BE881F981DC
:100970000280F381E02DAD0109959C01C901DF9151
:10098000CF9108950E94A6040895EE0FFF1F0590D1
:0A099000F491E02D0994F894FFCFD4
:10099A00436C6F636B7769736500416E7469436C6E
:1009AA006F636B776973650068656C6C6F2C207771
:1009BA006F726C6421000200030000000000BA019B
:0A09CA007C040000400014005400FB
:00000001FF
